{
  "contractName": "Haitech",
  "abi": [
    {
      "constant": true,
      "inputs": [],
      "name": "decimals",
      "outputs": [
        {
          "internalType": "uint8",
          "name": "",
          "type": "uint8"
        }
      ],
      "payable": false,
      "stateMutability": "view",
      "type": "function"
    },
    {
      "constant": true,
      "inputs": [],
      "name": "developer",
      "outputs": [
        {
          "internalType": "string",
          "name": "",
          "type": "string"
        }
      ],
      "payable": false,
      "stateMutability": "view",
      "type": "function"
    },
    {
      "constant": true,
      "inputs": [],
      "name": "name",
      "outputs": [
        {
          "internalType": "string",
          "name": "",
          "type": "string"
        }
      ],
      "payable": false,
      "stateMutability": "view",
      "type": "function"
    },
    {
      "constant": true,
      "inputs": [],
      "name": "symbol",
      "outputs": [
        {
          "internalType": "string",
          "name": "",
          "type": "string"
        }
      ],
      "payable": false,
      "stateMutability": "view",
      "type": "function"
    },
    {
      "constant": true,
      "inputs": [],
      "name": "totalSupply",
      "outputs": [
        {
          "internalType": "uint256",
          "name": "",
          "type": "uint256"
        }
      ],
      "payable": false,
      "stateMutability": "view",
      "type": "function"
    }
  ],
  "bytecode": "0x60806040526040518060400160405280601381526020017f4861697465636820446576656c6f706d656e74000000000000000000000000008152506000908051906020019061004f929190610122565b506040518060400160405280600581526020017f48544445560000000000000000000000000000000000000000000000000000008152506001908051906020019061009b929190610122565b506040518060400160405280600881526020017f7465636874616e61000000000000000000000000000000000000000000000000815250600290805190602001906100e7929190610122565b50670de0b6b3a76400006003556012600460006101000a81548160ff021916908360ff16021790555034801561011c57600080fd5b506101c7565b828054600181600116156101000203166002900490600052602060002090601f016020900481019282601f1061016357805160ff1916838001178555610191565b82800160010185558215610191579182015b82811115610190578251825591602001919060010190610175565b5b50905061019e91906101a2565b5090565b6101c491905b808211156101c05760008160009055506001016101a8565b5090565b90565b61044f806101d66000396000f3fe608060405234801561001057600080fd5b50600436106100575760003560e01c806306fdde031461005c57806318160ddd146100df578063313ce567146100fd57806395d89b4114610121578063ca4b208b146101a4575b600080fd5b610064610227565b6040518080602001828103825283818151815260200191508051906020019080838360005b838110156100a4578082015181840152602081019050610089565b50505050905090810190601f1680156100d15780820380516001836020036101000a031916815260200191505b509250505060405180910390f35b6100e76102c5565b6040518082815260200191505060405180910390f35b6101056102cb565b604051808260ff1660ff16815260200191505060405180910390f35b6101296102de565b6040518080602001828103825283818151815260200191508051906020019080838360005b8381101561016957808201518184015260208101905061014e565b50505050905090810190601f1680156101965780820380516001836020036101000a031916815260200191505b509250505060405180910390f35b6101ac61037c565b6040518080602001828103825283818151815260200191508051906020019080838360005b838110156101ec5780820151818401526020810190506101d1565b50505050905090810190601f1680156102195780820380516001836020036101000a031916815260200191505b509250505060405180910390f35b60008054600181600116156101000203166002900480601f0160208091040260200160405190810160405280929190818152602001828054600181600116156101000203166002900480156102bd5780601f10610292576101008083540402835291602001916102bd565b820191906000526020600020905b8154815290600101906020018083116102a057829003601f168201915b505050505081565b60035481565b600460009054906101000a900460ff1681565b60018054600181600116156101000203166002900480601f0160208091040260200160405190810160405280929190818152602001828054600181600116156101000203166002900480156103745780601f1061034957610100808354040283529160200191610374565b820191906000526020600020905b81548152906001019060200180831161035757829003601f168201915b505050505081565b60028054600181600116156101000203166002900480601f0160208091040260200160405190810160405280929190818152602001828054600181600116156101000203166002900480156104125780601f106103e757610100808354040283529160200191610412565b820191906000526020600020905b8154815290600101906020018083116103f557829003601f168201915b50505050508156fea265627a7a723158207d3701332c7e7971f050aa9c30dc8fe543e74373e72bdc50962f2ece03a9822464736f6c63430005110032",
  "source": "pragma solidity ^0.5.0;\r\n\r\ncontract Haitech {\r\n    string public name = 'Haitech Development';\r\n    string public symbol = 'HTDEV';\r\n    string public developer = 'techtana';\r\n    uint256 public totalSupply = 1000000000000000000;\r\n    uint8 public decimals = 18;\r\n}",
  "sourcePath": "C:\\Users\\mhait\\Projects\\complete-dapp-solidity-react-blockchain-development\\Section 9-12\\defi-staking-app-starter\\defi-staking-app-starter\\src\\contracts\\Haitech.sol",
  "compiler": {
    "name": "solc",
    "version": "0.5.17+commit.d19bba13.Emscripten.clang"
  },
  "schemaVersion": "3.4.3",
  "updatedAt": "2021-11-30T08:58:52.106Z",
  "networkType": "ethereum",
  "devdoc": {
    "methods": {}
  },
  "userdoc": {
    "methods": {}
  }
}